:100000000128F72F0034303431343234333434346F
:100010003534363437343834393441347434203458
:100020006C34653461347334743420343134303496
:1000300020347334653463342E34003445347834DA
:1000400070346F34733475347234653420347334DF
:1000500074346F347034703465346434003445342F
:10006000783470346F3473347534723465342034BA
:1000700073347434613472347434653464340034E9
:100080004534783470346F34733475347234653475
:10009000203464346F346E34653421340034423497
:1000A0006F346F34743469346E3467342E342E34C4
:1000B0002E34003454346F346F3420346C346F3445
:1000C000773421342134003442346F346F34743443
:1000D00069346E3467342E342E340034723465340F
:1000E0006D34613469346E3469346E34673400348D
:1000F0004D346134783469346D3475346D34213461
:10010000003442346F346F34743469346E3467347D
:100110002E3400347334653463346F346E34643495
:040120007334003400
:1006DA0000307223013072230800F30020000C114D
:1006EA0073089A2320000C160730F2007D30F100BF
:1006FA00F10B7D2BF20B7D2B20000C120800F90068
:10070A00F701F8017908770780310A008331003848
:10071A00031908007908770780310A008331EE242B
:10072A000130F7070030F83D872BF000701CA02B32
:10073A0020000D16A22B20000D12F01CA62B8D16E0
:10074A00A72B8D12701DAB2B0D17AC2B0D13F01DA3
:10075A00B02B8D1708008D130800F401F501701CE9
:10076A00BA2B7208F4077308F53D0130F235F30D20
:10077A00890BBB2B0130F136F00C890BC02B7108A9
:10078A007004031DB42B7508F101F1077408F00118
:10079A00F0070800F700F801F9017708013A031D8C
:1007AA00EF2B74087F3EF5007508FA007A08F50009
:1007BA000430F536890BDE2B7508F6007608F8004A
:1007CA007A080F39F5007508F90078087223790854
:1007DA00722308007708023A031D08007408BF3E16
:1007EA00F5007508FA007A08F5000430F536890B29
:1007FA00FB2B7508F6007608F8007A080F39F50021
:10080A007508F90078087223790872230800F6013E
:10081A00F31F162CF209F309F20A0319F30AF60177
:10082A00F60AF11F1D2CF009F109F00A0319F10A61
:10083A00710870040319442CF501F50AF11B2F2CD9
:10084A000130F035F10D890B262C0130F4007408C3
:10085A00F507232C71087302031D352C70087202E8
:10086A00031C3B2C7008F2027108F33B0130F1368D
:10087A00F00C890B3C2C0130F502031D2F2C760855
:10088A0003194C2CF209F309F20A0319F30A730843
:10089A00F101F1077208F001F007080000309A230D
:1008AA00FF30F6007F30F7007708803AFF0080308B
:1008BA007F02031D622C013076020318742C00009B
:1008CA00FF30F607FF30F73D7708803AFF008030A7
:1008DA007F02031D722C01307602031C642C033044
:1008EA0072230430F5003D30F400F40B7A2CF50B3A
:1008FA007A2C7F2C033072230430F5003D30F4004B
:10090A00F40B852CF50B852C8A2C033072230230CC
:10091A0072230230722308307223003072230C30A3
:10092A00722300307223063072230800F601F11F89
:10093A00A52CF009F109F00A0319F10AF601F60AE1
:10094A00F31FB02CF209F309F20A0319F30A013072
:10095A00F4007408F606F701F80171087004031927
:10096A00DF2CF501F50AF11BC42C0130F035F10D2D
:10097A00890BBB2C0130F4007408F507B82C013040
:10098A00F735F80D890BC52C71087302031DCF2C9E
:10099A0070087202031CD62C7008F2027108F33B2D
:1009AA0077140130F136F00C890BD72C0130F5029F
:1009BA00031DC42C76080319E72CF709F809F70A6E
:1009CA000319F80A7808F101F1077708F001F0072E
:1009DA000800F40074080F39F1007108F200740875
:1009EA00F039F1007108F30020000C157308F100CA
:1009FA000430F136890BFE2C71089A2320000C165C
:100A0A00FF30F5007F30F6007608803AFF0080302C
:100A1A007F02031D122D013075020318242D0000D8
:100A2A00FF30F507FF30F63D7608803AFF00803048
:100A3A007F02031D222D01307502031C142D200094
:100A4A000C1272089A2320000C16FF30F5007F3032
:100A5A00F6007608803AFF0080307F02031D372DAA
:100A6A00013075020318492D0000FF30F507FF30E9
:100A7A00F63D7608803AFF0080307F02031D472D3D
:100A8A0001307502031C392D20000C1208007B0866
:100A9A00FC007C082000A200FA1F6F2D2D30FC00FC
:100AAA002208860087017C0881000130FC007C084E
:100ABA00A207FF30F000FF30F1007A08F301F307D4
:100ACA007908F201F207B2237108FA01FA077008ED
:100ADA00F901F9077A082000A101A1077908A00104
:100AEA00A0070130FC007C08A2070A30F0000030A1
:100AFA00F1002108F301F3072008F201F2079B2411
:100B0A0071082000A101A1077008A001A00721080F
:100B1A002004031D762D22088600870181010A30F0
:100B2A00F0000030F1007A08F301F3077908F201C6
:100B3A00F2070C247008033E80310A008531FC005C
:100B4A0001302000A2022208860087017C08810069
:100B5A000A30F0000030F1007A08F301F30779084F
:100B6A00F201F2079B247108FA01FA077008F901E9
:100B7A00F9077A08790403190800942D53246D2380
:100B8A00F401F40A0130CF23813084230630200097
:100B9A00A5001330A400B130A300A30BD22DA40BDF
:100BAA00D22DA50BD22DD92D53246D23F401F40A8D
:100BBA000130CF236430842306302000A50013308F
:100BCA00A400B130A300A30BE82DA40BE82DA50BBC
:100BDA00E82DEF2D53246D23F401F40A0130CF23BD
:100BEA004F30842306302000A5001330A400B13012
:100BFA00A300A30BFE2DA40BFE2DA50BFE2D052E87
:100C0A0053246D23F401F40A0130CF234F30842397
:100C1A0006302000A5001330A400B130A300A30BB6
:100C2A00142EA40B142EA50B142E1B2E53246D2345
:100C3A0020003008FA01FA072F08F901F9073130C4
:100C4A00A3002308FB004C25F401F40A0130CF234A
:100C5A002000A601A7012708803AFF0080307F0202
:100C6A00031D392E033026020318522E20002608AF
:100C7A00313E860087010108EE2401302000A607D4
:100C8A000030A73D2708803AFF0080307F02031D0D
:100C9A00502E03302602031C3B2E05302000A300F1
:100CAA002308F4000130CF238A30842308007230ED
:100CBA00210099008C018D018E110E128E128E1454
:100CCA000E150E178E1720008E1123008C018D0130
:100CDA008E01C32520003008803AFF0081307F0250
:100CEA00031D792E2C302F0203186F2E20008E1828
:100CFA00E22E6D23013020003006031D862E2B3094
:100D0A002F06031D912E53246D23F401F40A01309A
:100D1A00CF2378308423E22E6D2320002F08013E52
:100D2A00AF000030303DB0003008FA01FA072F0852
:100D3A00F901F9073130A8002808FB004C25532493
:100D4A006D23F401F40A0130CF232000AB01AC017A
:100D5A002C08803AFF0080307F02031DB62E033034
:100D6A002B020318CF2E20002B08313E8600870164
:100D7A000108EE2401302000AB070030AC3D2C08FE
:100D8A00803AFF0080307F02031DCD2E03302B02F4
:100D9A00031CB82E05302000A8002808F4000130F2
:100DAA00CF238A30842362302000A9006530A8004E
:100DBA00A80BDD2EA90BDD2EE22E20000E19442FE2
:100DCA006D23200030082F04031DF42E53246D23B5
:100DDA00F401F40A0130CF235A308423442F20002F
:100DEA002F08FF3EAF00FF30303DB0003008FA0157
:100DFA00FA072F08F901F9073130A8002808FB0083
:100E0A004C2553246D23F401F40A0130CF2320002A
:100E1A00AB01AC012C08803AFF0080307F02031D31
:100E2A00182F03302B020318312F20002B08313ED4
:100E3A00860087010108EE2401302000AB0700304C
:100E4A00AC3D2C08803AFF0080307F02031D2F2F13
:100E5A0003302B02031C1A2F05302000A800280893
:100E6A00F4000130CF238A30842362302000A900A5
:100E7A006530A800A80B3F2FA90B3F2F442F200055
:100E8A008E1B6F2E6D2307302000AA005830A90050
:100E9A005E30A800A80B4F2FA90B4F2FAA0B4F2F7C
:100EAA00562F6D232000B01B6E2F3008803AFF00AA
:100EBA0080307F02031D632F0A302F0203186E2F22
:100ECA0053246D23F401F40A0130CF230D30842317
:100EDA006F2E53246D23F401F40A0130CF232F30EF
:100EEA00842301302000AD000030AE000130200024
:100EFA002D062E04031D6F2E8E156D23200030083B
:100F0A002F04031D962F53246D2320008E11F40104
:100F1A00F40A0130CF23403084232000AD01AE0112
:100F2A006F2E2F08FF3EAF00FF30303DB000300873
:100F3A00FA01FA072F08F901F9073130A800280841
:100F4A00FB004C2553246D23F401F40A0130CF230E
:100F5A002000AB01AC012C08803AFF0080307F02F0
:100F6A00031DB92F03302B020318D22F20002B08A0
:100F7A00313E860087010108EE2401302000AB07CC
:100F8A000030AC3D2C08803AFF0080307F02031D00
:100F9A00D02F03302B02031CBB2F05302000A800E2
:100FAA002808F4000130CF236E30842320000E1B62
:100FBA00E92F8E11F401F40A0130CF231E30842365
:100FCA002000AD01AE01DB2F0D30AA00AF30A90021
:100FDA00C130A800A80BEF2FA90BEF2FAA0BEF2FF8
:100FEA0000007B2FAD01AE01AF01B001B101B2012A
:060FFA00B30120005C2E93
:020000040001F9
:04000E00A4F9FFFF53
:00000001FF
